:100000000C9446000C9465000C9465000C946500FB
:100010000C9465000C9465000C9465000C946500CC
:100020000C9465000C9465000C9465000C946500BC
:100030000C9465000C9465000C9465000C946500AC
:100040000C9465000C9465000C9465000C9465009C
:100050000C9465000C9465000C9465000C9465008C
:100060000C9465000C9465000C9465000C9465007C
:100070000C9465000C9465000C9465000C9465006C
:100080000C9465000C9465000C94650011241FBE4F
:10009000CFEFD0E4DEBFCDBF11E0A0E0B1E0E8E5F6
:1000A000F2E000E00BBF02C007900D92AE30B10746
:1000B000D9F711E0AEE0B1E001C01D92A231B10765
:1000C000E1F70E9418010C942A010C940000CF93D0
:1000D000C82F8A3019F48DE00E9467009091C0000B
:1000E00095FFFCCFC093C60080E090E0CF910895CB
:1000F00080911001909111018130910559F018F013
:10010000029701F125C081E090E090931101809366
:1001100010011EC0009B06C080910E01813011F4B9
:1001200010920E01009907C082E090E090931101B7
:10013000809310010DC081E090E0909311018093B5
:10014000100106C081E090E09093110180931001AE
:1001500080911001909111018130910509F467C0DF
:1001600018F0029729F060C081E080930F01089594
:1001700080910F01813059F490910E01913039F046
:1001800080E480930F0181E080930E010895803414
:1001900059F490910E01913039F082E080930F0173
:1001A00081E080930E010895823059F490910E0100
:1001B000913039F080E280930F0181E080930E014D
:1001C0000895803259F490910E01913039F084E015
:1001D00080930F0181E080930E010895843059F4DB
:1001E00090910E01913039F080E180930F0181E010
:1001F00080930E010895803159F490910E01913051
:1002000039F088E080930F0181E080930E0108951A
:10021000883069F480910E01813049F081E080934B
:100220000F0180930E01089581E080930F010895DE
:1002300011B88FEF82B987B918B8109211011092D6
:10024000100181E080930F010E94780080910F01DE
:0802500088B9FACFF894FFCF42
:0E02580000000002000000006700000000002F
:00000001FF
