:100000000C9446000C9465000C9465000C946500FB
:100010000C9465000C9465000C9465000C946500CC
:100020000C9465000C9465000C9465000C946500BC
:100030000C9465000C9465000C9465000C946500AC
:100040000C9465000C9465000C9465000C9465009C
:100050000C9465000C9465000C9465000C9465008C
:100060000C9465000C9465000C9465000C9465007C
:100070000C9465000C9465000C9465000C9465006C
:100080000C9465000C9465000C94650011241FBE4F
:10009000CFEFD0E4DEBFCDBF11E0A0E0B1E0E0E102
:1000A000F2E000E00BBF02C007900D92AE30B10746
:1000B000D9F711E0AEE0B1E001C01D92A131B10766
:1000C000E1F70E94F4000C9406010C940000CF9319
:1000D000C82F8A3019F48DE00E9467009091C0000B
:1000E00095FFFCCFC093C60080E090E0CF910895CB
:1000F00080910F019091100182309105A1F128F4B7
:10010000009749F0019771F043C08330910591F158
:100110000497B9F13DC081E090E090931001809385
:100120000F013AC080B190E0809590958370992737
:10013000039739F484E090E09093100180930F01CD
:100140002BC0009907C082E090E09093100180934B
:100150000F0122C0019920C083E090E0909310012C
:1001600080930F0119C081E090E09093100180937B
:100170000F0112C081E090E09093100180930F0175
:100180000BC081E090E09093100180930F0104C0B8
:100190001092100110920F0180910F0190911001A7
:1001A0008230910571F018F4892B39F0089583306D
:1001B000910579F00497A9F0089587E080930E01E6
:1001C000089580910E01893070F48F5F80930E0145
:1001D000089580910E01882331F0815080930E01A3
:1001E000089510920E01089511B88FEF82B987B962
:1001F00018B81092100110920F0187E080930E0141
:100200000E94780080910E0188B9FACFF894FFCF50
:0E021000000000020000000067000000000077
:00000001FF
