:100000000C9446000C945D000C945D000C945D0013
:100010000C945D000C945D000C945D000C945D00EC
:100020000C945D000C945D000C945D000C945D00DC
:100030000C945D000C945D000C945D000C945D00CC
:100040000C945D000C945D000C945D000C945D00BC
:100050000C945D000C945D000C945D000C945D00AC
:100060000C945D000C945D000C945D000C945D009C
:100070000C945D000C945D000C945D000C945D008C
:100080000C945D000C945D000C945D0011241FBE67
:10009000CFEFD0E4DEBFCDBF11E0A0E0B1E0EAEFEA
:1000A000F1E000E00BBF02C007900D92AE30B10747
:1000B000D9F70E9470000C94FB000C940000CF93C1
:1000C000C82F8A3019F48DE00E945F009091C00023
:1000D00095FFFCCFC093C60080E090E0CF910895DB
:1000E00011B88FEF82B914B885B987B918B818B8A4
:1000F00080B180E488B9009902C080E688B901998E
:1001000002C080E688B980B190E0809590958370B8
:100110009927039711F480E788B9029902C080E714
:1001200088B980B190E08095909585709927059762
:1001300011F488E388B980B190E08095909586703D
:100140009927069711F488E388B980B190E08095EB
:10015000909587709927079711F48CE388B90399D4
:1001600002C08CE388B980B190E080959095897049
:100170009927099711F48CE388B980B190E08095B4
:1001800090958A7099270A9711F48EE388B980B107
:1001900090E0809590958B7099270B9711F48EE3E2
:1001A00088B980B190E0809590958C7099270C97D4
:1001B00011F48EE388B980B190E0809590958D70B0
:1001C00099270D9711F48FE388B980B190E080955D
:1001D00090958E7099270E9711F48FE388B980B1AE
:1001E00090E0809590958F7099270F9709F080CFB8
:0A01F0008FE388B97DCFF894FFCFAC
:0E01FA0000000002000000005F000000000096
:00000001FF
