:100000000C9446000C9465000C9465000C946500FB
:100010000C9465000C9465000C9465000C946500CC
:100020000C9465000C9465000C9465000C946500BC
:100030000C9465000C9465000C9465000C946500AC
:100040000C9465000C9465000C9465000C9465009C
:100050000C9465000C9465000C9465000C9465008C
:100060000C9465000C9465000C9465000C9465007C
:100070000C9465000C9465000C9465000C9465006C
:100080000C9465000C9465000C94650011241FBE4F
:10009000CFEFD0E4DEBFCDBF11E0A0E0B1E0E2E7FA
:1000A000F2E000E00BBF02C007900D92AE30B10746
:1000B000D9F711E0AEE0B1E001C01D92A331B10764
:1000C000E1F70E9425010C9437010C940000CF93B6
:1000D000C82F8A3019F48DE00E9467009091C0000B
:1000E00095FFFCCFC093C60080E090E0CF910895CB
:1000F00080911101909112018230910509F44FC055
:1001000028F4009759F0019781F05EC08330910583
:1001100009F44CC0049709F450C056C081E090E047
:10012000909312018093110153C080B18F3F31F43D
:1001300080910F01813011F410920F0180B18F3F37
:1001400031F480910E01813011F410920E0180B1D2
:1001500090E08095909583709927039739F484E017
:1001600090E0909312018093110132C0009907C072
:1001700082E090E0909312018093110129C00199CF
:1001800007C083E090E0909312018093110120C09A
:1001900081E090E0909312018093110119C081E0F9
:1001A00090E0909312018093110112C081E090E0E1
:1001B00090931201809311010BC081E090E0909325
:1001C00012018093110104C01092120110921101CA
:1001D00080911101909112018230910539F0A0F1C6
:1001E00083309105B1F0049749F12BC08091100143
:1001F000893050F590910F01913031F190910E01BD
:10020000913019F08F5F8093100181E080930F018E
:100210000895809110018823B9F090910F019130D9
:1002200099F090910E01913019F081508093100156
:1002300081E080930F0180930E01089510921001C8
:10024000089587E080931001089511B88FEF82B967
:1002500087B918B8109212011092110187E08093AB
:1002600010010E9478008091100188B9FACFF894AB
:02027000FFCFBE
:0E027200000000020000000067000000000015
:00000001FF
