:100000000C9459000C9478000C9478000C947800AF
:100010000C9478000C9478000C9478000C94780080
:100020000C9478000C9478000C9478000C94780070
:100030000C9478000C9478000C9478000C94780060
:100040000C9478000C9478000C9478000C94780050
:100050000C9478000C9478000C9478000C94780040
:100060000C9478000C9478000C9478000C94780030
:100070000C9478000C9478000C9478000C94780020
:100080000C9478000C9478000C9478001D012401E5
:100090002702300237023E0245024C0253025A0246
:1000A000610278027F0286028D0294029B02A20204
:1000B000A90211241FBECFEFD0E4DEBFCDBF11E0F7
:1000C000A0E0B1E0E0E8F8E000E00BBF02C007907C
:1000D0000D92AE30B107D9F711E0AEE0B1E001C04A
:1000E0001D92A731B107E1F70E94B0020C943E04C3
:1000F0000C940000CF93C82F8A3019F48DE00E9431
:100100007A009091C00095FFFCCFC093C60080E0BC
:1001100090E0CF910895CF92DF92EF92FF926B0122
:100120007C012091110130911201409113015091F5
:1001300014010E94C502882309F458C020E030E071
:10014000A901C701B6010E94C502811106C0E1E9FB
:10015000F0E080818870808305C0E1E9F0E0808173
:100160008360808328E539E344E75FE3C701B60194
:100170000E94C50288233CF48FEF9FEF9093990073
:100180008093980027C020E034E244EF56E4C70192
:10019000B6010E94D70318162CF410929900109201
:1001A000980018C020E030E040E053E4C701B601F9
:1001B0000E94DB039B01AC0160E074E284EF9AE4EF
:1001C0000E94C9020E943103615071097093990025
:1001D000609398001092950010929400C0921101C3
:1001E000D0921201E0921301F0921401FF90EF906F
:1001F000DF90CF90089580E4809390008BE080930F
:10020000910060E070E0CB010E948B000895109295
:10021000900010929100089580B18095877080932E
:100220001001E0911501F0911601EB30F10508F095
:100230004FC1EA5BFF4F0C94BC0281E090E09093C9
:1002400016018093150148C1813069F490910E0127
:10025000911109C00E94FB0081E090E0909316018B
:10026000809315010EC0813061F480910E018130C0
:1002700041F40E94070181E090E090931601809381
:10028000150180911001823041F490910F01983056
:1002900068F49F5F90930F0109C0843039F4909106
:1002A0000F01923018F0915090930F01823059F461
:1002B00090910F01913039F423E030E03093160132
:1002C000209315015AC0823059F490910F01923059
:1002D00039F424E030E030931601209315014DC02D
:1002E000823059F490910F01933039F425E030E0D9
:1002F000309316012093150140C0823059F490913B
:100300000F01943039F426E030E030931601209349
:10031000150133C0823059F490910F01953039F4B2
:1003200027E030E0309316012093150126C082307B
:1003300059F490910F01963039F428E030E0309371
:1003400016012093150119C0823059F490910F01C4
:10035000973039F429E030E03093160120931501ED
:100360000CC0823051F490910F01983031F42AE0A2
:1003700030E03093160120931501843059F49091A8
:100380000F01913039F483E090E09093160180934F
:100390001501A2C0843059F490910F01923039F4C4
:1003A00084E090E0909316018093150195C084300D
:1003B00059F490910F01933039F485E090E09093D7
:1003C00016018093150188C0843059F490910F0173
:1003D000943039F486E090E09093160180931501F3
:1003E0007BC0843059F490910F01953039F487E047
:1003F00090E090931601809315016EC0843059F4FB
:1004000090910F01963039F488E090E090931601B6
:100410008093150161C0843059F490910F01973099
:1004200039F489E090E0909316018093150154C04F
:10043000843009F051C080910F01883009F04CC020
:100440008AE090E0909316018093150145C08111D8
:1004500043C081E090E090931601809315013CC069
:1004600082E090E0909316018093150135C082E000
:1004700090E090931601809315012EC082E090E0E9
:10048000909316018093150127C082E090E090932D
:1004900016018093150120C082E090E09093160130
:1004A0008093150119C082E090E09093160180932B
:1004B000150112C082E090E090931601809315011F
:1004C0000BC082E090E0909316018093150104C068
:1004D0001092160110921501E0911501F09116018C
:1004E0003397E830F105D8F5EF5AFF4F0C94BC0272
:1004F00064EA70ED82E893E40E948B0008956BE754
:1005000074ED82E993E40E948B00089564EA70ED33
:1005100084EA93E40E948B00089561E77DE98EEA06
:1005200093E40E948B00089560E070E084EC93E413
:100530000E948B00089560E070E08CED93E40E94CF
:100540008B00089564EA70EF86EF93E40E948B00BD
:10055000089560E070ED82E094E40E948B000895BD
:1005600011B88FEF82B984B915B8109216011092A4
:1005700015010E940C01FDCFEE0FFF1F0024001C8F
:100580000BBE0790F691E02D09949CD008F481E011
:1005900008950CD0D2C0CAD040F0C1D030F021F4C0
:1005A0005F3F19F0B3C05111FCC0B6C0D7D098F36B
:1005B0009923C9F35523B1F3951B550BBB27AA27E4
:1005C00062177307840738F09F5F5F4F220F331F56
:1005D000441FAA1FA9F333D00E2E3AF0E0E830D022
:1005E00091505040E695001CCAF729D0FE2F27D025
:1005F000660F771F881FBB1F261737074807AB07F3
:10060000B0E809F0BB0B802DBF01FF2793585F4F67
:100610002AF09E3F510568F079C0C3C05F3FECF3FC
:10062000983EDCF3869577956795B795F7959F5F2C
:10063000C9F7880F911D9695879597F90895E1E080
:10064000660F771F881FBB1F621773078407BA07DF
:1006500020F0621B730B840BBA0BEE1F88F7E0953A
:10066000089504D06894B1119CC008957FD088F09B
:100670009F5790F0B92F9927B751A0F0D1F0660F8E
:10068000771F881F991F1AF0BA95C9F712C0B130A9
:1006900081F086D0B1E0089583C0672F782F882736
:1006A000B85F39F0B93FCCF3869577956795B395E8
:1006B000D9F73EF490958095709561957F4F8F4F57
:1006C0009F4F0895990F0008550FAA0BE0E8FEEF21
:1006D00016161706E807F907C0F012161306E40706
:1006E000F50798F0621B730B840B950B39F40A26FF
:1006F00061F0232B242B252B21F408950A2609F4DD
:10070000A140A6958FEF811D811D089597F99F67E0
:1007100080E870E060E008959FEF80EC0895002489
:100720000A941616170618060906089500240A9456
:1007300012161306140605060895092E0394000CDC
:1007400011F4882352F0BB0F40F4BF2B11F460FF6B
:1007500004C06F5F7F4F8F4F9F4F089557FD905894
:10076000440F551F59F05F3F71F04795880F97FB75
:10077000991F61F09F3F79F087950895121613062F
:100780001406551FF2CF4695F1DF08C0161617065E
:100790001806991FF1CF8695710561050894089593
:1007A000E894BB2766277727CB0197F908958ADF5E
:1007B00008F48FEF08950BD0C0CFB1DF28F0B6DF7B
:1007C00018F0952309F0A2CFA7CF1124EACFC6DFF6
:1007D000A0F3959FD1F3950F50E0551F629FF00154
:1007E000729FBB27F00DB11D639FAA27F00DB11DAD
:1007F000AA1F649F6627B00DA11D661F829F222736
:10080000B00DA11D621F739FB00DA11D621F839FBC
:10081000A00D611D221F749F3327A00D611D231F92
:10082000849F600D211D822F762F6A2F11249F57E0
:1008300050408AF0E1F088234AF0EE0FFF1FBB1F03
:10084000661F771F881F91505040A9F79E3F5105A2
:1008500070F05CCFA6CF5F3FECF3983EDCF386955B
:1008600077956795B795F795E7959F5FC1F7FE2B4D
:10087000880F911D9695879597F90895F894FFCF65
:0E08800000000002000000007A0000000000EE
:00000001FF
