:100000000C944D000C946C000C946C000C946C00DF
:100010000C946C000C946C000C946C000C946C00B0
:100020000C946C000C946C000C946C000C946C00A0
:100030000C946C000C94AA000C946C000C946C0052
:100040000C946C000C946C000C946C000C946C0080
:100050000C946C000C946C000C946C000C946C0070
:100060000C946C000C946C000C946C000C946C0060
:100070000C946C000C946C000C946C000C946C0050
:100080000C946C000C946C000C946C0016011D0117
:1000900034014B01620181019E0111241FBECFEF8B
:1000A000D0E4DEBFCDBF11E0A0E0B1E0E2E0F4E0DB
:1000B00000E00BBF02C007900D92A231B107D9F743
:1000C00011E0A2E1B1E001C01D92AB31B107E1F74F
:1000D0000E94D7010C94FF010C940000CF93C82F0D
:1000E0008A3019F48DE00E946E009091C00095FF57
:1000F000FCCFC093C60080E090E0CF9108958BE0E4
:10010000809381008DE790E0909389008093880030
:1001100082E080936F00109285001092840080919D
:10012000000190910101A0910201B091030180931F
:10013000120190931301A0931401B09315018FB78E
:1001400080688FBF089510928100089581E08093A8
:10015000160108951F920F920FB60F9211240BB63D
:100160000F922F933F934F935F936F937F938F9350
:100170009F93AF93BF93EF93FF9380911201909160
:100180001301A0911401B09115010197A109B109C2
:100190008093120190931301A0931401B093150161
:1001A000892B8A2B8B2B91F40E94A6008091000151
:1001B00090910101A0910201B0910301809312017D
:1001C00090931301A0931401B0931501FF91EF9147
:1001D000BF91AF919F918F917F916F915F914F915F
:1001E0003F912F910F900BBE0F900FBE0F901F905D
:1001F0001895609300017093010180930201909320
:100200000301609312017093130180931401909382
:1002100015010895E0911901F0911A01E730F105F7
:1002200008F0A9C0EA5BFF4F0C94F60181E090E072
:1002300090931A0180931901A2C000990EC0809179
:10024000170181110AC084E090E090931A01809315
:10025000190181E08093170192C082E090E09093B1
:100260001A01809319018BC000990EC0809117016B
:1002700081110AC085E090E090931A0180931901E2
:1002800081E0809317017BC083E090E090931A0196
:100290008093190174C000990EC0809117018111DB
:1002A0000AC086E090E090931A018093190181E0E2
:1002B0008093170164C081E090E090931A018093CD
:1002C00019015DC000990BC080911701811107C011
:1002D00081E090E090931A018093190106C084E0B8
:1002E00090E090931A018093190180B18F3F09F03B
:1002F00046C080911701813009F041C0109217016A
:100300003EC000990BC080911701811107C081E0A8
:1003100090E090931A018093190106C085E090E067
:1003200090931A018093190180B18F3F41F580911C
:100330001701813021F51092170121C000990BC0DF
:1003400080911701811107C081E090E090931A011C
:100350008093190106C086E090E090931A01809383
:10036000190180B18F3F59F480911701813039F420
:100370001092170104C010921A0110921901809175
:10038000190190911A018230910549F0833091054D
:1003900051F0019759F481E080931801089582E0AB
:1003A00080931801089584E080931801089511B88E
:1003B0008FEF82B987B918B86CE271E080E090E005
:1003C0000E94F9000E947F001092170110921A01FA
:1003D000109219010E940A018091180188B9809138
:1003E00016018823E1F310921601F4CFEE0FFF1FE0
:1003F0000024001C0BBE0790F691E02D0994F894A0
:02040000FFCF2C
:100402000100000000000002000000006E00000079
:020412000000E8
:00000001FF
